:020000040000fa
:080000000002040000000000f2
:020000040000fa
:10040000afe720000e7f22000e01880000000000f0
:100410000c000700a00826000100200011000700c2
:10042000000020000000e000020032000000020096
:1004300000000000545f0200000000000040da00ed
:100440000000fe004440a900200820000000e00059
:100450000300320000002000a00188004440a800f2
:100460000000060091018800800078000000eb0089
:1004700015003700e280400032a0b4009101ba00bc
:10048000e280400032a0b4009102ba00e280400055
:1004900032a0b4000002eb00472bde00f507b200eb
:1004a000602ce10004003a000059eb008301e900f0
:1004b000fdff3e00040037006128e100010032002a
:1004c0000082eb00040007001101ba000200e00006
:1004d000e8ff3a00000006003159ba008301e90044
:1004e0000c0032002159ba008301e90008003200f3
:1004f0000400e00003003a00e280400032a0b400b3
:10050000f5ff370011d9ba008301e900faff3a007c
:100510008100e800e180400032a0b4000000060045
:10052000800078001104b100030035009101b10092
:1005300001003c000050a000000006008000780090
:100540001106b100030035009101b10001003c002b
:100550000050a100000006006022b8000602200042
:100560000000d0008180d2000482d2008582d200b7
:100570000000a0000202520083825a0003003100f2
:100580000202420083824a000000a1000603e90043
:10059000f3ff3a0000000600efff07000400be0072
:1005a000000006008001eb00020037008171780036
:1005b0008301e800828f5100fcff3a000000060032
:1005c0000003780080027800020278008001eb00ce
:1005d000080037000402e90063c07800805a780000
:1005e0008301e8000004e00002003a008000eb0014
:1005f00006003700828f5100f6ff3a00fbff3700fc
:100600000040eb0080f07a008100e800848f500009
:10061000fbff3a000600780000000600800078002a
:100620003004e000feff3a00010050000000e90045
:100630000000060080017800000178003140780059
:10064000005978000004e000fcff3a000300780045
:100650000000060010417800814f51000400320074
:100660000000e8000204e000faff3a000000eb009e
:040670000000060080
:020000040000fa
:020000040001f9
:0457f8008f790000a5
:020000040000fa
:020000040001f9
:0457fc007f3e0000ec
:020000040000fa
:10000800b6600000b6600000b6600000b660000090
:10001800b6600000b6600000b6600000b660000080
:10002800b6600000b6600000b6600000b660000070
:10003800b6600000b6600000b6600000b660000060
:020000040000fa
:020000040000fa
:1006740000950000000000000000000001f90000e7
:10068400000000000000000009af000000000000ae
:10069400010000000a1b000000000000010000002f
:1006a4000cc3000000000000000000000daf0000bb
:1006b400020000000000000010ff00000000000025
:1006c4000000000011ff0000000000000100000015
:1006d40012ff0000000000000100000018ff0000ed
:1006e400000000000100000019ff000000000000ed
:1006f4000100000020ff00000000000000000000d6
:1007040021ff0000000000000000000026df0000c0
:10071400010000000000000037730000000000002a
:10072400000000003a250000030000000000000063
:100734003b25000000000000000000002e2e0000f9
:1007440000200000202000002020000020200000c5
:1007540020200000202000000000000072000000a3
:1007640074650000737400002e6d00007033000087
:040774000000000081
:020000040000fa
:100778000400fa000000eb00000f780006003700c4
:100788009e00780020cf20008080400010c0b30079
:10079800804878001e0fe800200020009e0f1000ff
:1007a800f7ff34000040eb00f2edb7000d2a070018
:1007b800e0da2000370207000004e00036003a00c3
:1007c800a16f8000e0da200080087800a16f800027
:1007d8000000eb00d0009800a16f80000000eb0043
:1007e800e0009800a26f80006000b80070019800d7
:1007f80001099800a26f80006000b80010099800f5
:1008080021099800a16f8000c0c5b300c0589800a6
:1008180010002000000f780007003700a16f80004b
:100828001e0078007c0040008100400000c2b30038
:10083800804878001e0fe800a00020009e0f1000de
:10084800f6ff3400a16f80000000eb00c010980094
:10085800a16f800000012000e0109800a26f8000c6
:1008680000688000116880007011980001199800d4
:10087800a26f80000068800011688000101998003d
:10088800211998000040eb0004edb700100020008b
:1008980010079800020037000000eb0010079800ce
:1008a8001e0090000080fa00000006001400fa0004
:1008b800881f780060079800710798000257980011
:1008c800135798006e009000401090005007980051
:1008d800b0002000100798006e009000801890006b
:1008e800701090006e01900010199800211998005e
:1008f8007e00900060119000020078000080ea00fd
:100908008180ea00300798005e0090000000e00057
:1009180009003a00ea00470012c0b3006e009000d8
:10092800520907000000e0000f003a00b001200063
:10093800100798000c0037005e0090006f00600000
:100948000000e00008003200ea00470012c0b300cf
:100958006e009000450907000000e00002003a0020
:10096800b0012000100798001e009000fb0f5000f7
:10097800bb0032001e0090000000e000b80032000a
:10098800ea0047006e0090009f0d0700504798004e
:100998005e409000e24f5000b10032005e4090008f
:1009a8000004e000a5003a006e009000e0109000fe
:1009b80041079800ce009000f003200000806000fe
:1009c800400798001e5090000080fb00100f980010
:1009d8001e0890000000e000040032009e0890000d
:1009e800e18f50002b003200990037004e00900034
:1009f800e80f5000960032000000eb001007980046
:100a0800d0c6b300104798000040eb00404798005c
:100a18001c0037004e4090000080fb00ee00900064
:100a28007c0040000100400010407800104798000a
:100a38004e4090000080fb00fe0090007c004000cb
:100a48000100400010407800004f78001e409000e0
:100a58000080fb00b0fe0700000478001e80fb0049
:100a6800adfe0700800f540003003200b0002000e4
:100a780010079800760037004e4090000040e800cc
:100a8800404798004e409000ea4f5000e1ff360082
:100a98006f0037004e009000be009000010060001b
:100aa8000000e0006a003a004e009000ef0f50008e
:100ab800670032000000eb0010079800d0c6b300b2
:100ac800104798007e009000c0589000a0c2b30064
:100ad80080cf5000280032000040eb0040479800cb
:100ae800220037004e4090000080fb00ee0090008e
:100af8007c0040000100400010407800104798003a
:100b08004e4090000080fb00fe0090007c004000fa
:100b18000100400010407800004f7800a0c2b300e8
:100b28009e4f100014003200f0c3b3009e4f100017
:100b38000b0032001e4090000080fb0076fe07008c
:100b4800000478001e80fb0073fe0700800f54002d
:100b580003003200b000200010079800060037009c
:100b68004e4090000040e800404798004e409000fa
:100b7800e74f5000dbff36007e009000c060900019
:100b8800a0c2b30080cf5000310032001e00900098
:100b98000000e0002e003a0080c0b30040479800f3
:100ba800220037004e4090000080fb00ee009000cd
:100bb8007c00400001004000104078001047980079
:100bc8004e4090000080fb00fe0090007c0040003a
:100bd8000100400010407800004f7800a0c2b30028
:100be8009e4f10001a003200f0c3b3009e4f100051
:100bf8000b0032001e4090000080fb0046fe0700fc
:100c0800000478001e80fb0043fe0700800f54009c
:100c180003003200b0002000100798000c003700d5
:100c28004e4090000040e800404798004e40900039
:100c3800ea4f5000dbff3600050037000e509000e9
:100c48000004e00002003a000000eb0010079800e2
:100c58005e0090000000e8005007980045ff37004c
:100c68001e0090004f0478000080fa000000060083
:100c78001200fa005007980061079800624f980028
:100c88000000eb00000f78005e00900090007800f4
:100c9800410798004e009000505890000004e00072
:100ca80003003a0070002000000f78008800370029
:100cb8005e00900080189000701090005e01900017
:100cc80010199800211998006e0090001000780003
:100cd8000000e00009003a0012c0b300ee009000e6
:100ce8005e009000610807000000e00010003a0074
:100cf800b0012000000f78000d0037006e00900052
:100d0800100078006f0060000000e000080032006a
:100d180012c0b300ee0090005e0090005308070078
:100d28000000e00002003a00b0012000000f780047
:100d3800ee0090005e009000b30c0700604798003a
:100d48006e4090000004e00003003200b000200074
:100d5800000f78005e0037005e0190006000b80068
:100d680070019800010998005e009000a0009000b2
:100d7800100090005e019000300198004101980039
:100d8800de0090000000eb00d0009800de0090002c
:100d98000000eb00e00098006e409000e14f50002a
:100da80003003a00b0002000000f78002800370048
:100db8005e00900030019000c00190004e0090004d
:100dc800d51107001007980021079800f0cdbf0043
:100dd8000004e00006003200be1307000004e00033
:100de8000300320090002000000f98003a003700fe
:100df800de009000516f8800626f8000736f800082
:100e08001e009000ae009000800f5100818f5900a5
:100e18000f0032000040eb00f2edb7004e009000ea
:100e2800100178001e009000ae00900022290700f3
:100e38000004e00002003a0080002000000f780063
:100e48001e009000ae009000606f8800716f8800ef
:100e58005e019000b2089000b0ff2f000080600093
:100e680030099800ee48900070c7b30080cf50005a
:100e780004003200ee48900010c6b30080cf500046
:100e88000a003a00de009000310890000000a0003f
:100e9800b00898005e019000b2089000d0ff2f00c3
:100ea8000080600030099800090037005e0190005a
:100eb800b2089000e0ff2f00008060003009980021
:100ec800de009000310890000010a000b0089800e3
:100ed8009e007800010f98000e0890000080fa002c
:100ee800000006001c00fa00200f9800320f98003e
:100ef800430f98000040eb00204798002e08900010
:100f0800100f78001e007800405890000080fb0009
:100f1800500f98005e089000e10f50000d0032005d
:100f28005e099000e30f5100010032001200370003
:100f380080ff2f00f1ff200020079800310798005c
:100f4800f0ff2f00f1ff200040079800510798009c
:100f58001100370080ff20000100200020079800c2
:100f680031079800f0ff2f0001002000400798008b
:100f7800510798000800370080ff2f00010020006b
:100f88002007980031079800f0ff2f00010020008b
:100f980040079800510798002e08900030019000f3
:100fa800c001900062079800730798006e019000d6
:100fb800fe0190001e0078006b170700000f9800d4
:100fc800110f98000e0990009e0990004e009000a5
:100fd800de009000800f5100818f590003003a0015
:100fe80080c0b30020479800130037001e00780027
:100ff80020099000b00990000e0890009e0890000b
:10100800800f5100818f590002003e00a0c0b3003c
:10101800204798000e0990009e0990002e0090002d
:10102800be009000800f5100818f590002003900e6
:10103800c0c3b300204798002e0890000e09900006
:101048009e09900032009800430098003e089000e6
:10105800ce08900061005000e0805800300f9800e2
:10106800410f98003e089000ce089000e00f500015
:10107800e08f5800030032002e4090000004e0008a
:10108800c5ff32002e4090000080fb000080fa006f
:10109800000006000400fa00100798000040eb006a
:1010a800004f78009e0090000040eb00d058980058
:1010b8009e0090000085200080087800a92907007c
:1010c800e14f50000500320060c0b300004f7800c7
:1010d80060c0b30004edb7000d0037001e0090009b
:1010e8000e000700004f78001e04e00008003a00d8
:1010f8001e009000df000700004f78001e04e0008b
:1011080003003a009e00900010c0b300d058980029
:101118001e80fb000080fa00000006000e00fa00a6
:10112800300798000040eb00304798003e009000e0
:10113800100178006000b8005f280700e14f5000f8
:101148000500320080c0b3003047980080c0b3006b
:1011580004edb700c10037003e0090001000780091
:10116800000f78001e007800e0f8930050c5b30027
:1011780080cf500069003a001e007800f0f8930014
:10118800a0cab30080cf500064003a003e0090002f
:101198001000780061032000a2100700804078004a
:1011a80060c4b30080cf50002a003a003e0090008f
:1011b80010007800710320009a1007008040780022
:1011c80010c4b30080cf500022003a003e009000c7
:1011d80010007800810320009210070080407800fa
:1011e80040c5b30080cf50001a003a003e0090007e
:1011f80010007800910320008a10070080407800d2
:1012080010c3b30080cf500012003a003e00900097
:1012180010007800610220008210070080407800ea
:1012280090c2b30080cf50000a003a003e019000ff
:101238006000b8001001980021019800be009000dd
:1012480020c0b300c05898000000eb005007980079
:10125800850037003e00900010007800210520002e
:10126800701007008040780060c4b30080cf500041
:101278002a003a003e009000100078003105200056
:10128800681007008040780010c4b30080cf500079
:1012980022003a003e00900010007800410520002e
:1012a800601007008040780040c5b30080cf500030
:1012b8001a003a003e009000100078005105200006
:1012c800581007008040780030c3b30080cf50002a
:1012d80012003a003e00900010007800210420001f
:1012e800501007008040780090c2b30080cf5000b3
:1012f8000a003a003e0190006000b8001001980012
:1013080021019800be00900030c0b300c05898007a
:101318008000eb0051079800530037003e00900012
:1013280010007800200798002e009000e0f8930045
:1013380050c5b30080cf500005003a002e00900041
:10134800f0f89300a0cab30080cf50000500320027
:1013580040c0b30004edb70040c0b3003047980068
:101368003e003700ae00900061c093000082fb0091
:1013780071c093000080fb004800dd00040070008d
:101388000001780001c893000082fb0011c8930097
:101398000080fb004800dd00040070008001780038
:1013a8003e00900012009800230098002e00900044
:1013b800a0c09300214798002e4090000080fb00b9
:1013c800400798004e009000ee0f50001f003e00ae
:1013d80010002000ce0090000100dd00600798009a
:1013e80000052400ee009000008060000000e0008e
:1013f8000e003a0000802100ee009000008060009e
:101408000000e0000d003a00ee00900062806000ed
:101418000000e00001003a000c003700be00900018
:1014280010c0b300c05898000c003700be009000f0
:1014380020c0b300c058980008003700be009000d4
:1014480030c0b300c05898000400370050c0b30043
:1014580004edb70050c0b300304798003e409000fc
:101468000080fb00500798005e0090000080fa00a2
:10147800000006001800fa00200f98000040eb005a
:10148800604798002e089000100178002e08900000
:10149800a00090001000900087270700e14f50003f
:1014a8000500320080c0b30004edb70080c0b3006f
:1014b80060479800e90037002e0890001000780077
:1014c800200798002e009000e0f8930050c5b30064
:1014d80080cf500005003a002e009000f0f89300ed
:1014e800a0cab30080cf50000500320030c0b3005e
:1014f80004edb70030c0b30060479800d70037004c
:101508002e08900010007800e1002000ce0f0700a0
:10151800000f78002e08900010007800d1002000fd
:10152800c00f0700804078002e08900031589800be
:101538002e08900010019000a00190001e00780075
:101548000100200002004000838048002e0990001e
:1015580030019800410198002e0890001000780092
:1015680001012000af0f0700804078002e0890008e
:10157800215898002e089000100078006101200082
:10158800b10f0700800078002e08900041089800ed
:101598002e089000400890000000e00007003a0084
:1015a8002e0890001000780041022000c00f0700ac
:1015b800800078002e089000410898002e089000be
:1015c80030019000c00190002e0890002058900033
:1015d8008080fb002e089000400890000088b90029
:1015e8000100200002004000838048002e0990007e
:1015f80050019800610198002e08900010007800b2
:1016080011012000900f0700800078002e0890003c
:10161800110898002e089000100078003101200071
:10162800890f0700010020006007980071079800e3
:101638006e009000fe009000e00f5000e08f580010
:1016480006003a002e0890001000780001022000e1
:10165800970f070060079800710798002e08900000
:1016680010007800b1002000770f070010079800dd
:101678001e0090000000e000040032001e009000f0
:10168800610060000004e0000500320030c0b300d3
:1016980004edb70030002000300f980072003700ca
:1016a8002e08900010089000c500dd001e00900074
:1016b800008040000000e9001e01900011000900b0
:1016c8000280d80001002000000f9800110f980038
:1016d8002e089000205890008080fb002e08900073
:1016e800400890000088b9001e0040006101b80061
:1016f8000e0890009e089000020140008381480077
:101708006e009000fe009000020050008380580098
:1017180040079800510798002e0890003058900014
:101728000081fb00030020004e009000de009000c6
:1017380087fb07002e0990002009980031099800be
:101748002e08900020099000b009900040ff20006a
:1017580001002000800f5100818f590004003e00d5
:10176800ae08900010c0b300c05898000f003700b2
:101778002e08900020099000b009900040ff2f002b
:1017880001002000800f5100818f590004003e00a5
:10179800ae08900020c0b300c0589800030037007e
:1017a800ae08900030c0b300c05898002e089000d2
:1017b80040589000e34f500011003a002e08900066
:1017c80010007800c1022000390f07000068880067
:1017d800116888002e08900050019000e0019000e8
:1017e8000e0890009e089000020040008380480088
:1017f8002e09900070019800010998000f00370029
:101808006000b80000688800116888002e08900001
:1018180050019000e00190002e0890001008900000
:101828004400de00010020000200400083804800e0
:101838002e09900070019800010998009e00900000
:1018480000202000808f50000400320030c0b30018
:101858006047980030c0b30004edb7006e409000b8
:101868000080fb00300f98003e0890000080fa00ce
:10187800000006000600fa00200798006000b80083
:10188800008fbe002e00900020089000010020006c
:10189800008fbe001e00be00c000dd00000020005a
:1018a800008fbe002e00900050089000010020001c
:1018b8001e1f70001e9770001e00be000080fa00f8
:1018c800000006001400fa0050079800610798000d
:1018d80072079800030f98006000b800200798006e
:1018e800310798005e009000ee009000e00f500075
:1018f800e08f5800070032007e0190008e099000aa
:101908001000200001002000800f5100818f590035
:1019180003003e000080eb00100f98001b01370009
:101928007e0090008e08900061015000e081580010
:101938005e009000ee009000800f5100818f5900ea
:10194800030031008080eb00110f98000f01370071
:10195800f0cdbf000004e00006003200dd100700f3
:101968000004e000030032000081eb00120f980031
:101978000601370000852000022020008000eb00cf
:1019880006fb070000852000400798005e009000d5
:10199800ee009000008fbe001e00be0012ec230077
:1019a80003002000eafa07004e09dd00c200de004d
:1019b800810071004e00dd00200798003107980073
:1019c8001e00be0012ec230003002000f0fa0700fe
:1019d800008fbe001e00be00f2032000030020009e
:1019e800dbfa07004609dd00ca01de008301710049
:1019f8004601dd002e009000be009000020070003d
:101a08008380700020079800310798001e00be00f0
:101a1800f203200003002000ddfa0700008fbe005b
:101a280010002000010020003e014000ae81480067
:101a38002e009000be0090000200700083807000ad
:101a480020079800310798002e009000be009000f3
:101a58004008de00010020000feab7002e009000c9
:101a6800be0090004809dd004800de00000071005b
:101a7800c808de0010eab7002e00900011eab7008f
:101a88007e0190008e0990005e009000ee009000ac
:101a98000001510081815900ce009000f00f200014
:101aa8000002610021c8930060406000044070009b
:101ab800a0c89b004812de0031c893006040600057
:101ac80004407000b0c89b00f00f20000082610045
:101ad80041c893006040600004407000c0c89b008b
:101ae8004819de0051c89300604060000240700051
:101af800d0c89b00ce00900021c893000082fb0054
:101b080031c893000080fb004800dd00040070002d
:101b18000001780041c893000082fb0051c893007f
:101b28000080fb004800dd000400700080017800a0
:101b38008003210001002000800f5100818f59008f
:101b480004003e00ce00900010c0b300a0c09b006f
:101b58001b003700ce00900021c893000082fb00d4
:101b680031c893000080fb004800dd0004007000cd
:101b78000001780041c893000082fb0051c893001f
:101b88000080fb004800dd00040070008001780040
:101b9800f0d52f00f1032000800f5100818f5900ec
:101ba80004003e00ce00900060c0b300a0c09b00bf
:101bb800030037008081eb00130f98007300370093
:101bc800ce0090005e019000f00f2000000161003f
:101bd80061c093006040600002407000e0c09b005c
:101be8005e0090004801de0071c093006040600014
:101bf80002407000f0c09b006e019000f00f2000c2
:101c08000001610001c8930060406000024070005c
:101c180080c89b006e0090004801de0011c8930048
:101c2800604060000240700090c89b005e01900018
:101c3800ee0190007e0090008e08900002004000a7
:101c4800838048000081eb008081eb00021f400088
:101c5800039748001e00be0012ec2300030020007a
:101c68003bfa0700ce09dd00c200de00818071006a
:101c78004e00dd0020079800310798001e00be00c6
:101c880012ec23000300200041fa0700008fbe0079
:101c98001e00be00f2032000030020002cfa0700fb
:101ca8004609dd00ca01de00830171004601dd003e
:101cb8002e009000be00900002007000838070002b
:101cc80020079800310798001e00be00f20320008c
:101cd800030020002efa0700008fbe00100020002d
:101ce800010020003e014000ae8148002e00900017
:101cf800be009000020070008380700020079800ea
:101d0800310798002e009000be0090004008de00c9
:101d18000100200013eab7002e009000be009000da
:101d28004809dd004800de0000007100c808de0038
:101d380014eab7002e00900015eab700ce00900014
:101d48000040eb00e0789b00ce00900050c5b30047
:101d5800e0f89b00ce009000a0cab300f0f89b000a
:101d680013c0b300028520006000b800c325070037
:101d7800e14f5000030032008081eb00130f980000
:101d8800020037000000eb00100f98001e089000ba
:101d98000080fa00000006005600fa00407f980014
:101da800721f980003279800112798007e004700ab
:101db800600798000040eb0004edb700ee009000cb
:101dc8000085200080087800862407006526070023
:101dd800e14f50000500320060c0b30004edb700c9
:101de8000080eb004027980044033700028520005c
:101df8006000b800302507000004e00005003a0044
:101e0800b0c1b30004edb7008080eb004127980013
:101e18003a0337006e0090001000780070079800b1
:101e28007e009000e0f8930050c5b30080cf5000ca
:101e38005d003a007e009000f0f89300a0cab3005d
:101e480080cf500058003a006e00900010007800d3
:101e580061032000730d07008040780060c4b30060
:101e680080cf50003c003a006e00900010007800cf
:101e7800710320006b0d07008040780010c4b30088
:101e880080cf500034003a006e00900010007800b7
:101e980081032000630d07008040780040c5b3002f
:101ea80080cf50002c003a006e009000100078009f
:101eb800910320005b0d07008040780010c3b30039
:101ec80080cf500024003a006e0090001000780087
:101ed80061022000530d07008040780090c2b300d3
:101ee80080cf50001c003a004e7890000000fb00a4
:101ef800302798003e2190000200e00009003200df
:101f0800be219000e18f5100010032002600370009
:101f1800f0c1b30004edb7000082eb00442798003d
:101f2800f60237006e0090006011b80012009800a9
:101f3800230098006e0090004efd07000004e000aa
:101f480019003200b0c1b30004edb7000080eb0007
:101f580040279800e902370000852000600f9800ac
:101f6800ee08900061c093000082fb0071c09300ee
:101f78000080fb004800dd000400700000017800cc
:101f880001c893000082fb0011c893000080fb0089
:101f98004800dd0004007000800178006e009000a9
:101fa80012009800230098004e7890000000fb0073
:101fb80020279800ae2090000100e000f8013200d0
:101fc8002e219000e10f510001003200fd01370081
:101fd800ee08900021c893000082fb0031c89300ee
:101fe8000080fb004800dd0004007000000178005c
:101ff80041c893000082fb0051c893000080fb0099
:102008004800dd000400700080017800420f98004d
:10201800530f98004e099000de09900080032100bc
:1020280001002000800f5100818f590026003e00da
:10203800ee00900010c0b300c0589800ee08900061
:1020480010c0b300a0c09b0013c0b30002852000dd
:102058006000b800092507000004e00005003a0008
:1020680090c0b30004edb7008081eb0043279800cf
:10207800a20237004e099000de099000700221008c
:1020880001002000800f5100818f590004003600a4
:10209800ee00900020c0b300b0589800030037004d
:1020a800ee00900010c0b300b058980000852000e2
:1020b800022020008000eb0038f9070020c3b3009d
:1020c8008ae8b7004e0037004e099000de099000fc
:1020d800f0d52f00f1032000800f5100818f5900a7
:1020e80042003e00ee00900020c0b300c0589800a7
:1020f800ee08900060c0b300a0c09b0013c0b300fe
:10210800028520006000b800dc2407000004e0001d
:1021180005003a0090c0b30004edb7000082eb0060
:1021280044279800750237004e099000de09900098
:1021380080de2f00f1ff2f0002004000838048005e
:10214800200f9800310f9800ee00900010c0b300e7
:10215800b05898000d0037006e009000305890007d
:102168000080fb0000004000804078006e00900076
:10217800315898002e089000be0890008100d100c8
:102188000080d300200f9800310f98002e0990008e
:10219800be099000d0fe2f0001002000800f5100e2
:1021a800818f5900ecff3e006e009000b0589000ff
:1021b80000c8b30080cf50000500360040c0b3000f
:1021c80004edb7000080eb00402798004b02370071
:1021d80000852000022020008000eb00eff80700b7
:1021e80060c3b3008ae8b7000500370070c1b300c8
:1021f80004edb7008080eb00412798003f023700cc
:102208006e009000305890000080fb0000004000f5
:102218006101b9004e089000de08900002014000fc
:1022280083814800f0fd2f00f1ff2f0002004000dd
:102238008380480030079800410798006e0090009e
:1022480040589000e14f50000a003a006e0090009c
:10225800305890008080fb00501520000088b9009d
:102268000080e800cf80de00100798002107980062
:10227800080037006e009000305890000080fb0086
:102288004800dd000080e800cf80de0010079800dd
:10229800210798001e019000ae0190003e009000ba
:1022a800ce0090000200400083804800610050008a
:1022b800e08058001e019000ae019000a4f80700cd
:1022c8003007980041079800b0ceb30050e8b70037
:1022d800c0c3b30051e8b70000c9b30052e8b70063
:1022e800d0c4b30053e8b70030c4b30054e8b70013
:1022f80080c4b30055e8b70000c5b30056e8b7007e
:1023080000c2b30057e8b70060c4b30058e8b7008c
:1023180010c4b30059e8b70040c5b3005ae8b70085
:102328000040eb005be8b70020c0b3005ce8b700f2
:102338006e009000305890005de8b70080c0b30090
:102348005ee8b7000040eb005fe8b7006e00900061
:10235800a00090001000900068004000e080480055
:102368006e019000300198004101980020c0b30030
:1023780060e8b700ee00900020c0b300a0589800b5
:102388000040eb0061e8b70020c0b30062e8b70086
:10239800ee00900000202000900898000040eb001c
:1023a80063e8b7000040eb0064e8b70080cfb300f3
:1023b80065e8b7003e00900066e8b7003e00900070
:1023c800ce0090004809dd004800de0000007100e2
:1023d800c808de0067e8b700be0090006e009000f5
:1023e80041089800f0c3b30068e8b7000040eb006c
:1023f80069e8b70000c0eb006ae8b7000040eb00ee
:102408006be8b7006e009000a000900010009000ec
:102418006ce8b7006e009000a000900010009000db
:10242800c809dd004800de0000807100c808de0031
:102438006de8b7006e009000a000900010009000ba
:102448004008de00010020006ee8b7006e00900032
:10245800a0009000100090004808de000100200055
:102468006fe8b7004e08900070e8b7004e0890007b
:10247800de089000480add004800de000000720017
:10248800c808de0071e8b7004e089000de0890002a
:102498004008de000100200072e8b7004e089000f6
:1024a800de0890004808de000100200073e8b7004d
:1024b8000040eb0074e8b7000040eb0075e8b70097
:1024c80090c2b30076e8b7007e189000804078008c
:1024d80000c0eb0000c0600077e8b7007e189000ed
:1024e8008e20900050279800612798005e20900069
:1024f800ee209000e00f5000e08f580006003d00ed
:102508005e219000ee219000f20fb0000380b00031
:1025180052279800632798005e219000ee219000d2
:10252800481add004810de0000007200c898de007e
:102538008040780000c0eb0000c0600078e8b70079
:102548007e1890008e20900070279800012f980028
:102558007e2090008e289000e00f5000e08f5800f9
:1025680008003d00f0ff2f00010020007e219000b0
:102578008e2990000201400083814800722798004c
:10258800032f98007e2190008e2990004098de004d
:10259800cf80de008040780000c0eb0000c0600003
:1025a80079e8b7007e1890008e209000102f9800d0
:1025b800212f98001e289000ae289000e00f5000b0
:1025c800e08f580008003d00f0ff2f00f10f2000b9
:1025d8001e299000ae299000020140008381480026
:1025e800122f9800232f98001e299000ae299000e2
:1025f8004898de00cf80de008040780000c0eb0005
:1026080000c060007ae8b7001e2090000000e000db
:10261800270032000040eb00004f78000d00370023
:102628001e80fb00b2022000000141001e80fb005a
:10263800800078001e209000008040001040780044
:1026480080407800008520000000410001487800a3
:102658001e4fe8001e80fb00800078001e209000be
:1026680000804000104078000004e0000c003200b8
:10267800a3c0b3009ecf1100e9ff36000800370061
:102688001e80fb00b10220008080400000852000f1
:102698008080400000c2b300804878001e4fe800e8
:1026a800a4c0b3009e4f1200f5ff36000e0037009d
:1026b8000040eb00004f7800080037001e80fb0048
:1026c800b10220008080400000852000808040000a
:1026d8000040eb00804878001e4fe800a0c0b3001f
:1026e8009e4f1000f5ff360060c4b30086e8b700bf
:1026f80010c4b30087e8b70040c5b30088e8b70046
:1027080010c3b30089e8b70000c2b3008be8b70074
:1027180000c2b3008ce8b70000c2b3008de8b70070
:1027280050c5b3004eeab700a0cab3004feab700dd
:102738006e00900030019000c00190006e00900083
:10274800205890008080fb006e00900040089000a8
:102758000088b90001002000020040008380480082
:102768006e01900050019800610198006e00900081
:10277800a0009000100090008041eb00028520002e
:102788003e2307000004e00013003a0090c0b300a5
:1027980004edb7008080eb0041279800d700370090
:1027a8006e00900033fb07000004e0000a003200ce
:1027b800b0c1b30004edb7000081eb0042279800d8
:1027c800ce003700f0c1b30004edb7008081eb0004
:1027d80043279800c9003700008520000220200008
:1027e8008000eb006df7070080cfb30050e8b7001a
:1027f80000c0eb0051e8b70000c0eb0052e8b7009a
:102808006e00900040589000e24f500002003a00dd
:1028180000c0eb0053e8b7006e009000205890000d
:102828000080fb000000e900500798001500370001
:102838006e00900030019000c00190006e00900082
:10284800c00890005e0090000088b90001002000d8
:1028580002004000838048008041eb000285200090
:10286800062307000004e00003003a000082eb00a2
:1028780044279800a10037005e0090000000e9009e
:10288800500798005e009000e10f4000e8ff3a0012
:102898006000b80080428800914288006e00900075
:1028a800c000900030009000004fe8001c00370086
:1028b8006e009000205890000080fb000000e900a6
:1028c80050079800120037001e81fb006e00900030
:1028d800c00890005e0090000088b9000000410028
:1028e800010020008041eb0002852000e322070060
:1028f8000004e00003003a000080eb004027980045
:102908007e0037005e0090000000e9005007980044
:102918005e009000e10f4000ebff3a001e4fe80018
:102928001e4078000082fb00050020006e00900029
:1029380030019000c00190006e00900040089000a7
:10294800010020000200400083804800800f5200f0
:10295800818f5a00d6ff39006e0090001008900051
:102968004500dd00f01fb0004900de000100200036
:10297800000f9800110f980010c0b300004f7800a6
:10298800110037006e00900050019000e0019000a7
:102998001e4078000080fb0001002000020040007b
:1029a800838048008041eb0002852000b3220700a5
:1029b8000004e00003003a008080eb004127980003
:1029c8004e0037001e4fe8001e4078000081fb00d3
:1029d800030020000e0890009e089000800f510010
:1029e800818f5900e7ff39001e2090000000e000a9
:1029f800350032000040eb00004f78000b00370034
:102a08001e81fb001e80fb00800078001e209000c5
:102a18000080400010407800804078000085200049
:102a280000004100014878001e4fe8001e80fb00ae
:102a3800800078001e209000008040001040780040
:102a48000004e0000a003200a2c0b3009e4f11004b
:102a5800ebff3600060037009e80fb000085200053
:102a68008080400000c2b300804878001e4fe80014
:102a7800a3c0b3009ecf1100f7ff360080c0b3009b
:102a88005be8b70010c1b30061e8b70010c1b3003c
:102a980063e8b70010c1b30067e8b7006e009000a4
:102aa800e0009000500090008041eb00028520007b
:102ab800722207000004e0000e003a000082eb00da
:102ac800442798000d0037006e009000e000900049
:102ad800500090008041eb0002852000672207002b
:102ae8000004e00003003a000080eb004027980053
:102af800020037008000eb00412798004e2090002c
:102b08000080fa00000006001200fa006007980032
:102b1800710798006e0090009000780051079800a7
:102b28006e00900010199000a0199000028fbe004e
:102b38007e009000100078004400de00004f9800ee
:102b48005e009000405890000080fb00000f980045
:102b58008e099000e18f51001f0035000e0890008b
:102b6800e20f50000e0034008e089000e38f5000f2
:102b780001003200180037005e009000b058900045
:102b88000e4890000080fb000181fb001100090045
:102b98000280d8008000fd00004f98000e0037002a
:102ba8000068800011688000be0f1000ae8f18000a
:102bb800090032005e009000b05890000e48900066
:102bc8000080fb000181fb00110009000280d80091
:102bd8008000fd00004f98001e01be005e009000be
:102be8004d0a070020079800310798005e00900002
:102bf800100278000e4890000081fb0003002000be
:102c08002e009000be009000020040008380480023
:102c18008041eb0004017800182207000004e0005e
:102c280003003a000040eb00104f98000200370004
:102c380010c0b300104f98001e4890000080fb00a1
:102c48000080fa00000006001800fa0070079800db
:102c5800010f9800120f98000000eb00000f780099
:102c68001e089000405890000080fb00300f98002c
:102c78003e089000e20f500010003200be0890009d
:102c8800e38f5000040032003e089000e10f50002e
:102c9800130032001a003700f0ff2f00f1ff200068
:102ca800100798002107980080ff2f00f1ff2000ef
:102cb800300798004107980011003700f0ff2f00f7
:102cc80001002000100798002107980080ff2f00be
:102cd80001002000300798004107980008003700dd
:102ce800f0ff2f000100200010079800210798002e
:102cf80080ff20000100200030079800410798005d
:102d08007e0090008e089000e00f5000e08f580081
:102d1800070032007e0190008e099000100020000c
:102d280001002000800f5100818f59003d003a00ba
:102d380020002000000f78003c0037007e01900042
:102d48008e0990001e089000071007005007980091
:102d5800610798005e019000ee0190001e0090004f
:102d6800ae009000800f5100818f590003003a0097
:102d780010002000000f78002a0037005e00900045
:102d8800ee009000e00f5000e08f5800070032007e
:102d98005e019000ee01900010002000010020006c
:102da800800f5100818f590003003a002000200055
:102db800000f78001b0037005e019000ee019000c4
:102dc8003e009000ce009000800f5100818f590086
:102dd8000200390020002000000f78008040eb003e
:102de8006022b8007e0190008e0990001e089000b5
:102df800b11107000001be001e009000ae00900057
:102e0800800f5100818f590002003a001000200005
:102e1800000f78005e009000ee00900070079800a8
:102e2800010f98001e00e000c4ff320011c0b3007b
:102e38006022b8006011b8001e0890009e110700bb
:102e4800210020009e8f100003003a00100020008f
:102e5800200f9800020037008000eb00210f980037
:102e68002e0890000080fa00000006002000fa00fa
:102e7800300f9800410f9800225f98003e0890009c
:102e880090007800110f98003e0890007011900093
:102e98008019900052079800630798003e08900038
:102ea80010199000a01990001207980023079800a5
:102eb8004e089000100078004400de00104798008b
:102ec8001e089000405890000080fb00700f98008a
:102ed800fe099000e18f5100270035007e08900020
:102ee800e20f500012003400fe089000e38f5000fb
:102ef80001003200200037001e089000b0589000f2
:102f08001e4090000080fb000181fb0011000900b9
:102f18000280d8008000fd001047980080ff2f0035
:102f2800f1ff200030079800410798001200370091
:102f38005e009000ee009000e00f5000e08f580017
:102f4800090032001e089000b05890001e40900002
:102f58000080fb000181fb00110009000280d800fd
:102f68008000fd001047980080ff2f00010020001e
:102f780030079800410798002e5890000004e000a0
:102f880005003a004e089000100078006f006000bd
:102f98000000e00097003a001e4090000004e000a6
:102fa80004003a004e08900010007800ef0f50001f
:102fb80003003e002e5890000004e0002900320073
:102fc8005e009000ee009000e00f5000e08f580087
:102fd80004003a006000b800100798002107980024
:102fe800200037002e5890000004e0000a0032004c
:102ff8004e089000900078001e089000305890000d
:103008000080fb004401dd00110009008280d80027
:10301800004f78001100370010c0b300004f78004f
:103028000e0037001e019000ae0190001e089000af
:103038004d0f070010079800210798001e01900007
:10304800ae0190003e009000ce009000800f51002d
:10305800818f5900030031001e4fe9001e04e00073
:10306800f0ff3a001e019000ae0190003e00900073
:10307800ce009000800f5100818f59005800310018
:103088003e0890001e019000ae01900012189800b2
:10309800231898001e019000ae0190001e089000b1
:1030a8001d09070070079800010f9800026880004a
:1030b800136880001e009000ae009000820f500040
:1030c800838f580014003a001e4090000081fb00d6
:1030d800030020007e0090008e089000020140004e
:1030e800838148001e0890008008900070009000be
:1030f800800f5100818f5900070039001e08900089
:1031080040589000e34f5000030032000000eb00ed
:10311800200f980040003700f0cdbf000004e00009
:1031280006003200eb0a07000004e000030032004a
:103138008001eb00630f9800390037000000eb00b6
:10314800506f88000040eb00f2edb7001e089000b9
:10315800100278001e4090000081fb000300200050
:103168007e0090008e089000020040008380480096
:103178000401780050200700e14f5000030032009e
:103188000000eb00200f9800100037002e58900028
:103198000004e0000a0032001e08900010007800c9
:1031a800800078004e089000100078006f006000e2
:1031b8004500dd0000804000200f98000300370024
:1031c8001e08900010007800200f98000080eb0087
:1031d8008080eb00606f8800716f88000e003700f8
:1031e80010c0b300f1edb7000000eb00200f98000d
:1031f800090037001e089000100078008000780051
:103208004e089000100078006f0060004500dd0057
:1032180000804000200f98002e089000600f980052
:103228006e0890000080fa00000006001400fa0002
:1032380070079800010f9800225798000000eb00d3
:10324800000f78000040eb0004edb7000040eb00f1
:10325800204798000d0037002e4090000081fb00a9
:103268002e4090000080fb00fe0090007c00400093
:103278000100400090407800630047000171780029
:103288002e4090000040e800204798002e40900013
:10329800ea4f5000f0ff36000e0890008000eb0067
:1032a800010878008e0890007e0090005c000700fe
:1032b8000004e0000d003200e3004700ae5190002a
:1032c8000e0990007e009000df0007000080fb00e0
:1032d800000f78001e00e00006003a007e00900013
:1032e80009000700000f78000200370040012000a5
:1032f800000f78001e00780004edb7001e0078006b
:103308000080fa00000006001400fa007007980018
:103318007e0090004010900060079800e800470089
:103328007e009000a5070700300798003e00900037
:103338000000e00037003a00ec0047007e009000f3
:10334800dc030700000f78004e009000de009000bc
:10335800800078001e007800510898004e00900008
:10336800de00900002002000f3ff20000002780039
:103378008102780002007800830078000001620072
:10338800018062006102b800040f9800150f9800d0
:103398000e0890009e089000c000dd00000020008c
:1033a800000f9800110f98000e0890009e089000da
:1033b8006112b800040f9800150f98000e099000cc
:1033c8009e0990000200700083807000100798002a
:1033d800210798001e009000ae0090004008de0013
:1033e8000100200010079800210798009e00900017
:1033f8001e00780021089800ec0047007e0090002d
:10340800c1fd0700e14f500002003200900020008b
:10341800300798003e0090000080fa000000060087
:103428001200fa00600798007107980010c0b300f6
:10343800204f98006e009000801890007010900047
:103448006e019000101998002119980012c0b3005d
:10345800fe0090006e00900084fe0700000f7800c8
:103468001e00e00067003a00b0c1b300204f98008a
:103478006a0037000040eb00104f98007e00900073
:1034880090007800310798000041eb00fe009000a2
:103498006e00900075fe0700000f78001e0078008f
:1034a80010407800004f98007e00900010007800cf
:1034b8008000e8007e009000010878000e48900027
:1034c800fb4f4000030032000e4890000004e0006b
:1034d80008003a001e00e000060032001e48900076
:1034e8000040e800104f98001e4890000004e000db
:1034f800e5ff32001e00e0003a003a006e0090003e
:1035080010199000a019900012079800230798003e
:1035180002688000136880001e009000ae009000d2
:10352800820f5000838f58001b003a006e009000f5
:103538001000780040589000e34f5000030032001c
:1035480020c0b300204f98002e0037006e00900076
:103558001e019000ae0190003200980043009800d0
:1035680011c0b3006e00900059010700f54f5000dc
:1035780003003a0020c0b300204f98002100370014
:103588007e009000be019000030878000040eb0028
:10359800204f98001b0037006e0090001e0190001d
:1035a800ae019000320098004300980011c0b300ab
:1035b8006e00900046010700f54f500003003a00e6
:1035c80020c0b300204f98000e0037007e00900006
:1035d800be019000030878000040eb00204f9800df
:1035e800080037001e489000e14f500005003a00df
:1035f8000040eb00204f98007e009000be00900035
:10360800010878002e489000e14f500099ff3200e1
:103618007e0090003e019000020878002e4890003d
:103628000004e00003003a0013002000030f980094
:10363800020037000000eb00000f98000e08900011
:103648000080fa00000006000e00fa00200798002b
:103658003107980042079800234f98000040eb007c
:10366800204798002e00900080189000701090005d
:103678002e019000101998002119980012c0b3006b
:10368800ce0090002e009000f8fd0700000f780093
:103698001e00e00003003a00b00120006007980017
:1036a8005d0037001e007800b2002000be009000c8
:1036b800c1f307002e489000f24f500004003a0072
:1036c8009e00780000c1b300b0489800030037009e
:1036d8009e00780000c2b300b04898009e007800b1
:1036e8000040eb00c04898009e0078000000eb0006
:1036f800a00898009e0078000000eb00d008980011
:103708001e0178006000b8006009980071099800ef
:103718004400070051cf2000914078001e00780037
:1037280051489800b16780001e0078007100980029
:10373800c16780001e007800010898002e4890009c
:10374800f24f50000a003200d16780001e00780056
:1037580011089800e16780001e0078003108980081
:10376800f16780001e0078004108980009003700c2
:103778009e0078000000eb00900898009e007800fa
:103788000000eb00b00898009e0078000000eb00f5
:10379800c00898001e007800f008900060089000ab
:1037a8002e01900010099800210998001e00780049
:1037b800f00090002e009000410898001e0078004c
:1037c800800890002e009000510898001e00780094
:1037d800304890008080fb002e0090006110980017
:1037e8004e009000900078002e0090004110980044
:1037f800ce0090002e009000c3fc0700e14f50005f
:103808000200320090c0b300204798002e4090007c
:103818000080fb00600798006e0090000080fa00ae
:10382800000006000e00fa0027c6bf0061406000d5
:103838000004e0000300320010c0b300004f78001d
:10384800020037000040eb00004f780027c6bf0099
:10385800624060000004e0000300320010c0b300c2
:1038680010479800020037000040eb00104798000e
:103878002706a8002726a8002031800060079800a6
:1038880020318000500798002031800040079800c0
:10389800203180003007980010c0b3009e4f100000
:1038a80001003a002706a8001e409000e14f500092
:1038b80001003a002726a8000000eb002007980026
:1038c8006e009000ef0060002e00900001004000a4
:1038d80020079800ee009000000f20000080600094
:1038e8004400de006a00b900800078002e009000d5
:1038f80001004000200798002e009000740040004e
:10390800200798002e0090004900dd00100798005d
:103918005e0090004c00de00610060000004e000e2
:1039280003003200a00020002007980002003700a2
:103938000000eb0020079800de00900000f0200057
:1039480000806000c800de002e00900001004000ea
:10395800200798002e0090004500dd002007980001
:103968009e0090002e0090000080700010079800c4
:10397800de009000000f2000008060004400de00a0
:10398800200798002e0090006a00b90020079800d0
:103998005e009000ef0060002e00900001004000e3
:1039a800200798009e0090002e0090000080700074
:1039b800100798001e009000c06788001e00900045
:1039c800f06788001e009000d0678800ce00900045
:1039d800000f2000008060004400de006a00b9008b
:1039e800200798004e009000ef0060002e00900025
:1039f80001004000200798002e0090004b00dd00d9
:103a080010079800be00900000002f0000806000a2
:103a18004c00de006a00b90020079800be00900044
:103a280000f0200000806000c800de002e0090003a
:103a380001004000200798002e009000c500dd001e
:103a48001e0090000100700010079800be00900052
:103a5800000f2000008060004400de006a00b9000a
:103a6800200798003e009000ef0060002e009000b4
:103a780001004000200798002e00900061006000bf
:103a88000004e0000300320040c6b300f5ecb700c4
:103a9800020037000040eb00f5ecb7002e00900064
:103aa8000000d100200798009e0090002e00900092
:103ab80000807000100798001e009000b067880012
:103ac8001e009000e06788000080fa0000000600f1
:103ad8001000fa0050079800414f98005e009000cf
:103ae80090007800410798005e0090003001900037
:103af800c001900022079800330798005e009000ec
:103b08004700070020079800310798002e00900012
:103b1800be009000e00f5000e08f580003003a000c
:103b280053012000730798003a0037004e009000b8
:103b380040589000e14f500008003a008040eb00e8
:103b480084ff2000050020002e019000be01900097
:103b58004e009000580e0700130037004e009000ea
:103b680040589000e24f500008003a008040eb00b7
:103b780084ff2f00050020002e019000be01900058
:103b88004e0090004c0e0700070037008040eb0005
:103b980084ff2f00f5ff20002e019000be01900049
:103ba8004e009000440e07005e0090003001900027
:103bb800c0019000028fbe008040eb002e029000f2
:103bc800be0290001e01be004e0090003a0e070093
:103bd8005e0090002e019000be0190003200980017
:103be800430098004e489000e14f500007003a000b
:103bf8002e019000be0190004e009000c505070000
:103c08000080fb0070079800020037008001eb007d
:103c1800730798007e0090000080fa0000000600fc
:103c28001a00fa00300f98006000b800000f9800e2
:103c3800110f98003e08900090007800210f98001e
:103c48003e08900030019000c00190006207980083
:103c5800730798002e089000405890000080fb00e1
:103c6800400f9800ce099000e28f51000f003200fb
:103c78004e089000e30f500004003200ce08900078
:103c8800e18f5000110032001700370070ff2f003d
:103c9800f1ff20002007980031079800f0ff2f005f
:103ca800f1ff2000008fbe000f00370070ff2f00cb
:103cb800010020002007980031079800f0ff2f002e
:103cc80001002000008fbe000700370070ff2000b1
:103cd800010020002007980031079800f0ff2f000e
:103ce80001002000008fbe006e019000fe019000d0
:103cf8001000200001002000800f5100818f590022
:103d080004003e0020002000010020006007980009
:103d1800710798006e019000fe019000420798001c
:103d2800530798006e019000fe0190002e08900045
:103d38000d0c0700380037006e019000fe0190005e
:103d48002e089000080c0700000f9800110f98002b
:103d58000e0890009e089000be0f5000ae8f5800cd
:103d680004003a006000b8006007980071079800e6
:103d78002e0037000e0890009e089000e00f5000bb
:103d8800e08f5800290032006e009000fe0090007d
:103d980061004000e08048006007980071079800c3
:103da8000e0990009e0990002e009000be00900021
:103db800800f5100818f5900080032002e089000b2
:103dc80020099000b00990006e009000fe0090005d
:103dd800800f5100818f590004003e002000200010
:103de8000100200060079800710798006e0190009c
:103df800fe0190004e009000de009000800f510000
:103e0800818f590004003a006000b80060079800ec
:103e180071079800050037006e009000fe009000c2
:103e2800e00f5000e08f5800c3ff3a006e0090008a
:103e3800fe0090000080fa00000006000c00fa0066
:103e48004007980080042000100798000040eb000d
:103e580004edb7004e009000401090003007980025
:103e68004e00900030089000610060000000e00003
:103e780042003200f0cdbf000004e000080032002c
:103e8800940707000004e0000500320090c0b3006a
:103e980004edb7000080eb0050079800570037008a
:103ea8004e0090001000780011c0b3006022b800e6
:103eb8006011b800800d0700e60047004e00900032
:103ec800fc000700000f78001e00e00007003a0021
:103ed800b0c1b30004edb7000080eb0010079800f4
:103ee8001e00900050079800440037004dfe070060
:103ef800e16780001e00780031089800f1678000b3
:103f08001e00780041089800000000004e00900054
:103f1800a0089000100890001e0178006009980021
:103f2800710998004e009000601090008040780061
:103f38001e00780031489800e60047004e009000c7
:103f4800f1fa07000004e000030032000000eb0073
:103f5800100798000400370090c0b30004edb700c4
:103f68000080eb00100798004e019000b208900006
:103f7800e0ff2f0000806000300998000000eb008f
:103f88002007980012003700ae0090006003200060
:103f98000088b9008000780000c5200080804000bb
:103fa8004e009000808f500006003a00ae0090004e
:103fb80020cf20008080400010c0b30080487800e7
:103fc800060037002e0090000000e8002007980047
:103fd8002e009000e20f5000ebff36009e0090008c
:103fe80080042000808f500002003a000000eb009f
:103ff800100798001e009000500798005e0090007f
:104008000080fa00000006000c00fa004007980043
:10401800510798000040eb00004f78005e009000c8
:10402800100078006f0060000000e00010003a0007
:104038005e009000100078000000e0000c003200e4
:104048004e00900080189000701090004e01900073
:10405800101998002119980012c0b300de009000d2
:104068004e00900081fb07003007980005003700dc
:104078000041eb00de0090004e0090007bfb070043
:10408800300798003e0090001040780030479800b4
:104098003e0090000000e000030032003e40900027
:1040a8000004e00003003a0020c0b3001047980065
:1040b8007c0037003e409000fb4f400003003a0070
:1040c80010c0b30010479800760037003e009000fb
:1040d800b0489000314798000040eb0040479800f6
:1040e800140037004e4090008080fb003e00900096
:1040f8000080400010407800204798002e40900033
:104108000080fb000bf10700204798001e80fb0091
:104118002e419000ce0090007c004000010040003d
:10412800024878001e4fe8004e4090000040e8002a
:10413800404798004e409000e74f5000e9ff360096
:104148003e009000b0489000314798003e00900033
:1041580000489000204798000040eb004047980036
:10416800150037004e4090000080fb00be00900014
:104178006800400001004000104078002047980087
:104188002e4090000080fb00eaf0070020479800ce
:104198001e80fb002e419000ce0090007c00400065
:1041a80001004000024878001e4fe8004e40900091
:1041b8000040e800404798004e409000e24f500011
:1041c800e8ff36005e009000900078004e009000f6
:1041d800411098003e009000104078003047980049
:1041e8003e409000fb4f400003003a0010c0b3006f
:1041f80010479800020037000040eb001047980075
:104208003e009000f0089000600890004e01900079
:1042180010099800210998003e00900095f50700c4
:104228004e01900010019800210198003e00900076
:10423800b0489000314798003e4090008080fb00d5
:104248004e009000611098003e4090000080fb00f6
:104258004400de00610060000004e0000900320054
:104268003e009000f00090004e0090004108980039
:104278003e009000800890004e0090005108980081
:10428800080037003e009000b00890004e009000f3
:10429800410898003e009000c00890004e00900031
:1042a800510898001e4090000080fb000080fa0032
:1042b800000006000a00fa0020079800310798005d
:1042c8002e00900080189000701090002e01900031
:1042d800101998002119980012c0b300be00900070
:1042e8002e009000e1fa0700100798001e009000c9
:1042f8000000e00003003a000000eb0040079800cf
:104308002c0037001e00900010407800004f780005
:104318001e04e00002003a000000eb0010079800bd
:104328001e0090000000e0002000320051ceb300d3
:104338009ecf100003003a000000eb001007980021
:104348001a0037001e009000b0489000014f780016
:10435800130037003e009000100078008000e8004d
:104368003e009000010878000041eb00be0090007c
:104378002e009000bdfa0700100798001e0090005c
:104388000000e00003003a000000eb00400798003e
:10439800080037001e009000b0489000014f7800d8
:1043a800f0c0b3009e4f1000eaff32009e0090005c
:1043b800410798004e0090000080fa0000000600b7
:1043c8001400fa00600798007107980002579800d7
:1043d8000000eb00300798006e009000100f780086
:1043e8006e009000701190008019900012079800dc
:1043f800230798006e0090001e019000ae01900007
:10440800121898002318980012c0b300fe009000fc
:104418006e00900095fa0700500798005e00900023
:104428000000e00005003a0010c0b30004edb7003a
:10443800b3012000130f9800460037005e0090007b
:1044480010407800004f98005e0090000000e000e7
:10445800030032000e4890000004e00003003a0018
:10446800b000200030079800300037000e48900058
:10447800fb4f400003003a00b000200030079800ce
:104488002a0037005e009000b0489000014f980065
:10449800de00900050ceb300804878005e009000a7
:1044a800f4f4070010079800210798003e009000d8
:1044b8000000e00005003a00fe0090006e00900049
:1044c80091f907000004e00003003a001000200002
:1044d80030079800150037000268800013688000d4
:1044e8001e009000ae009000820f5000838f58008d
:1044f8000e0032000e5090000004e0000b00320065
:104508001e0178001e009000ae009000cef9070052
:10451800804078000000eb00300798000104e000bc
:1045280002003a0010002000300798003e0090007a
:104538000000e00003003a000040eb0004edb70083
:104548000200370010c0b30004edb7003e01900030
:10455800120f98001e0890000080fa000000060064
:104568001a00fa00200f9800310f98000040eb0065
:104578004047980010002000100f98000040eb0002
:1045880004edb7003e0890000000e00005003a0086
:1045980090c1b30004edb7000080eb00400f980015
:1045a800c50037003e089000fc0040000041eb00c9
:1045b8002e089000e60607000004e00005003a0017
:1045c80020c1b30004edb7008080eb00410f9800d4
:1045d800b90037000040eb00504798000e00370044
:1045e8005e4090000081fb005e4090000080fb0070
:1045f800be0890007c004000010040009040780018
:104608006600470000004100014878005e409000c5
:104618000040e800504798005e409000ea4f500084
:10462800efff36003e089000c01090001107980078
:104638000000eb00100f98003e08900080189000d2
:10464800701090003e0990001019980021199800e8
:10465800f200470012c0b3003e08900003fa0700ba
:10466800000f78001e00e00005003a00b0c1b3005a
:1046780004edb7000080eb00400f98008e00370073
:104688000040eb0050479800110037005e40900052
:104698008080fb001e0078000080400010417800f8
:1046a8005e4090008080fb0066004700008040006c
:1046b80010407800804f51000200320010c0b30053
:1046c800404798005e4090000040e800504798003e
:1046d8005e409000ea4f5000ecff36004e409000dc
:1046e8000004e00005003a0010c1b30004edb70073
:1046f8008080eb00410f98006f0037000040eb000e
:10470800404798000040eb00f1edb700f200470089
:104718000041eb003e089000d4f90700000f780034
:104728001e00e00008003a00f1cdbf00e14f500044
:104738002e003200b0c1b30004edb7000080eb00da
:10474800400f98005c0037001e0078001040780089
:104758000004e000250032000040eb0050479800bc
:10476800110037005e4090008080fb001e0078003a
:1047780000804000104178005e4090008080fb007f
:10478800660047000080400010407800804f5100cc
:104798000200320010c0b300404798005e4090000d
:1047a8000040e800504798005e409000ea4f5000f3
:1047b800ecff36004e4090000004e00005003a008f
:1047c80010c1b30004edb7008080eb00410f9800e2
:1047d800390037000040eb00404798001e08900061
:1047e8000000e800100f9800c8ff37001e00900076
:1047f800100f98003e0890008018900070109000ec
:104808003e0990001019980021199800f2004700fd
:104818003e089000a7fe0700000f78001e00e00089
:1048280005003a00b0c1b30004edb7008080eb008a
:10483800410f9800200037000040eb0050479800d7
:104848000e0037005e4090000081fb005e40900043
:104858000080fb00be0890007c0040000100400082
:10486800904078001e007800000041000148780060
:104878005e4090000040e800504798005e4090007d
:10488800ea4f5000efff3600f20047003e08900064
:104898009df807000004e00005003a0090c0b3004e
:1048a80004edb7000080eb00400f980002003700cd
:1048b8008000eb00410f98004e0890000080fa003d
:1048c800000006001200fa005007980061079800df
:1048d8000000eb00300798000000eb00200798006c
:1048e80016003700ae00900020cf20000080400066
:1048f800104078000004e0000d003200ae00900087
:1049080020cf2000808040000040eb0080487800e5
:10491800ae009000600320000088b9008000780095
:1049280000c52000008040003007980006003700ce
:104938002e0090000000e800200798002e0090004c
:10494800e20f5000e7ff34003e0090000000e00056
:1049580005003a0000c2b30004edb7000000eb0008
:10496800000f9800690137003e009000fc004000ed
:104978000041eb005e009000f50507000004e00030
:104988000a003a00ae00900020cf2000808040004e
:1049980010c0b3008048780020c1b30004edb70010
:1049a8008000eb00010f9800580137006e0090005e
:1049b8001040780020479800be009000e0da200000
:1049c800800878003e0190006000b800100198004f
:1049d800210198003e0190006000b8003001980065
:1049e80041019800be0090000000eb00c010980044
:1049f800be00900000022000e0109800a06f800028
:104a080080189000701090003e019000701198007e
:104a180001199800a06f8000a0189000101890004d
:104a28003e0190001019980021199800be009000ce
:104a380020d42000c50107008041eb0012c0b3005c
:104a480021d420003e00900098ef07000000e0000d
:104a5800d5003a002e4090000080fb0070079800b7
:104a680070052000fe009000808f50001a00320070
:104a780070052000fe009000808f500009003c0067
:104a880010042000fe009000808f50004400320087
:104a980020052000fe009000808f5000a400320006
:104aa800bc00370020072000fe009000808f5000d7
:104ab8009f00320070072000fe009000808f500099
:104ac8000500320010062000fe009000808f500084
:104ad80033003200af0037003e00900040109000d5
:104ae80040079800e800470012c0b3003e0090005d
:104af80033fe0700000f78001e00e000ed003a00ca
:104b0800e80047000041eb003e009000c7f90700ad
:104b1800000f78001e00e000e6003a00e8004700b9
:104b280072c7b3003e00900051f00700000f7800f4
:104b38003e009000601090004400de0061006000bc
:104b48000004e00004003200f0c1b30004edb70037
:104b5800f00f2000000f78001e00e000d5003a009a
:104b6800210020006011b8003e0090006107070096
:104b7800000f78006e0090000000e8009040780078
:104b8800b0c2b30080cf5000ca003a003e00900087
:104b9800b00890000110a00031089800c500370047
:104ba8003e009000a008900010089000e00f500010
:104bb800e08f5800280032003e009000401090001e
:104bc80040079800e800470072c7b3003e00900015
:104bd80027f00700000f78003e009000601090005a
:104be8004400de00610060000004e00004003200c0
:104bf800f0c1b30004edb700f00f2000000f7800fb
:104c08001e00e000ab003a00210020006011b8004f
:104c18003e00900037070700000f78001e00e000f4
:104c280002003200a0c1b30004edb7006e0090008e
:104c38000000e80090407800b0c2b30080cf500078
:104c48009c003a003e009000b00890000110a000bf
:104c580031089800970037003e00900040109000ff
:104c680040079800e800470012c0b3003e009000db
:104c7800d3fd0700000f78001e00e0008d003a0009
:104c8800e80047000041eb003e00900067f907008c
:104c9800000f78001e00e00086003a00e800470098
:104ca80072c7b3003e009000f1ef0700000f7800d4
:104cb8003e009000601090004400de00610060003b
:104cc8000004e00004003200f0c1b30004edb700b6
:104cd800f00f2000000f78001e00e00075003a0079
:104ce800210020006011b8003e0090000107070075
:104cf800000f78001e00e00002003200a0c1b300df
:104d080004edb7006e0090000000e80090407800c5
:104d1800b0c2b30080cf500066003a003e00900059
:104d2800b00890000110a000310898006100370019
:104d38003e0090004010900040079800e8004700af
:104d480022c7b3003e009000c9ef0700000f7800ab
:104d58006e0090000000e80090407800b0c2b300f8
:104d680080cf500053003a003e0090006010900041
:104d78004400de00610060000000e0004d003a00e1
:104d88003e009000b00890000100a0003108980093
:104d980048003700f0c1b30004edb700f00f200061
:104da800000f78004300370021d420003e00900017
:104db800e6000700ae40900070c7b30080cf5000f7
:104dc8000c003200ae40900070c5b30080cf500098
:104dd80008003200ae40900010c6b30080cf5000eb
:104de80004003200ae40900010c4b30080cf5000e1
:104df8002e003a000000eb0040079800e80047004a
:104e08000041eb003e00900008f90700000f780011
:104e18001e00e00027003a00e800470072c7b30010
:104e28003e00900092ef0700000f78003e009000cf
:104e3800601090004400de00610060000004e000a3
:104e480004003200f0c1b30004edb700f00f2000f9
:104e5800000f78001e00e00016003a002100200034
:104e68006011b8003e009000a2060700000f78000d
:104e78001e00e00002003200a0c1b30004edb7003c
:104e88006e0090000000e80090407800b0c2b300c7
:104e980080cf500007003a003e009000b008900014
:104ea8000110a0003108980002003700b00020006f
:104eb800000f7800d81907000004e0000500320050
:104ec8003e019000b2089000e0ff2f0000806000d3
:104ed800300998001e00e00008003200ae00900083
:104ee80020cf20008080400010c0b30080487800a8
:104ef8000000eb0030079800020037000040eb008c
:104f080004edb7003e009000000f98000e089000d6
:104f18000080fa00000006000200fa00000f780086
:104f28000040eb0004edb7001e00780080089000f8
:104f3800700090000080fa00000006000800fa00e7
:104f480020079800c0d02000100798000040eb0010
:104f580004edb700b01907000004e00005003200b6
:104f680080c1b30004edb7000080eb003007980063
:104f7800540037001e009000fc0040000041eb0088
:104f88002e009000720407000004e00005003a00bb
:104f980020c1b30004edb7000080eb003007980093
:104fa800480037009e009000e0da20008008780072
:104fb8001e0190006000b8001001980021019800bf
:104fc8001e0190006000b80030019800410198006f
:104fd8009e0090000000eb00c01098009e0090001a
:104fe80000022000e0109800a06f80008018900058
:104ff800701090001e01900070119800011998001f
:10500800a06f8000a0189000101890001e0190005a
:1050180010199800211998009e00900020d42000b3
:105028004a0007008041eb0012c0b30021d42000e1
:105038001e0090001dee0700000f78001e00e00023
:1050480005003200b0c0b30004edb7000080eb00eb
:10505800300798001b0037001e0090006010900079
:105068004400de00610060000004e000050032003a
:1050780030c1b30004edb7000080eb0030079800a2
:10508800100037001e009000810220008080400040
:1050980012c0b3001e009000c9fc0700000f780082
:1050a8001e00e00003003a000000eb003007980003
:1050b8000400370010c0b30004edb7000080eb0017
:1050c800300798003e0090000080fa0000000600bb
:1050d8000200fa00000f7800f0cdbf000004e000e5
:1050e80001003200fb0207001e0178006000b800d2
:1050f80070019800010998009e0078000000eb00fc
:10510800e00098009e0078000000eb00d0009800b6
:105118001e007800a0009000100090001e0178008a
:1051280030019800410198000000eb00506f8800a2
:105138000080fa00000006000000fa0004cdbf005d
:105148000080fb000080fa00000006000c00fa0056
:1051580040079800510798004e00900020079800db
:105168005e0090001007980060c3b3006047980085
:105178000040eb00004f78000b0037001e80fb005a
:10518800800078002e009000008140001e80fb0007
:10519800800078001e0090000080400010407800d9
:1051a800004978001e4fe8006e4090009e4f1000a6
:1051b800f2ff39000080fa00000006000800fa003b
:1051c80020079800310798000000eb00000f7800d6
:1051d8002e00900090007800110798002e00900093
:1051e8008ffa07003e0190000089be003e00900043
:1051f8001000be00e00f5000e08f580003003a0096
:1052080050012000000f78003f0037001e0090007a
:1052180040589000e14f500010003a003e009000c6
:105228001001be008040eb0084ff20000500200034
:105238001e009000a00807000001be00f0ff2f002c
:1052480001002000800f5100818f590026003a008c
:1052580090002000000f7800230037001e00900007
:1052680040589000e24f500010003a003e00900075
:105278001001be008040eb0084ff2f0005002000d5
:105288001e0090008c0807000001be00f0ff2f00f0
:1052980001002000800f5100818f590012003a0050
:1052a80090002000000f78000f0037003e009000ab
:1052b8001001be008040eb0084ff2f00f5ff2000a6
:1052c8001e0090007c0807000001be00f0ff2f00c0
:1052d800f1ff2000800f5100818f590002003a0031
:1052e80090002000000f78001e00e00006003a0041
:1052f8003e0090001001be001e009000050007004f
:105308000080fb00000f78001e0078000080fa0083
:10531800000006001000fa004007980052079800a5
:10532800630798000040eb00004f78005e01900092
:10533800ee0190004e0090007700070010079800db
:1053480021079800f0cdbf000004e00006003200fd
:10535800600207000004e000030032009000200013
:10536800700798002c0037000000eb00506f880091
:10537800f2cdbf000004e00007003a004e009000a4
:1053880010007800022020008000eb0083ec07006a
:1053980010c0b300f2edb7000040eb006047980082
:1053a800140037004e009000100178001e02900093
:1053b800ae0290001e009000ae0090006100400018
:1053c800e080480010079800210798008041eb0012
:1053d8000400be0029180700e14f50000200320007
:1053e80090c0b300004f78006e4090000040e80085
:1053f800604798004e009000b05890006e409000b2
:1054080080cf5000020036001e04e000e5ff3200a5
:105418001e80fb00700798007e0090000080fa0054
:10542800000006000400fa00000f78001107980039
:105438001e0090001e004000104078000080fb0015
:105448000080fa00000006000800fa002007980013
:1054580031079800be0090002e00900000804000a8
:105468009040780031479800be0090002e009000d0
:10547800008040000000e800904078002147980034
:105488002e4090000080fb00000f78001e0078007e
:105498004800dd00000f78003e4090000080fb00cf
:1054a8001e0f70001e0078000080fa000000060041
:1054b8000c00fa004007980051079800de009000a1
:1054c8004e009000e0ff0700300798005e00900053
:1054d8008080e8004e009000dbff0700200798005e
:1054e8002e00900001002000008fbe001e00be00ac
:1054f800c000dd0000002000008fbe003e009000cc
:10550800010020001e1f70001e9770001e00be00c4
:105518000080fa00000006000c00fa00889fbe0018
:105528002007980032079800430798002e00900043
:10553800405890000080fb00500798005e009000e3
:10554800e10f5000480035005e009000e20f500067
:105558001b0034005e009000e30f50000100320091
:10556800410037003e009000ce00900062045000d9
:10557800e08458002e009000305890000082fb0014
:10558800050020008800780004007800000bb800af
:1055980005c0b900070178000001410009a0b90061
:1055a80000014100820378002e00900080089000de
:1055b80070009000001f430001974b002a0037003d
:1055c8003e009000ce009000e00f5000e08f5800a1
:1055d800070032003e019000ce019000100020002c
:1055e80001002000800f5100818f590008003a0007
:1055f8002e00900050019000e00190003e009000c5
:10560800ce009000001f41000197490016003700a6
:105618003e009000ce00900062045000e0845800e4
:105628002e009000305890000082fb0005002000fa
:105638008800780004007800000bb80005c0b900a5
:10564800070178000001410009a0b90000014100ec
:10565800820378002e00900080089000700090006f
:10566800001f430001974b001e00be004f04be0000
:105678000080fa00000006000a00fa0020079800df
:10568800614798000040eb0004edb7006e409000c1
:105698008080fb0080fd2f00008060000000e0009b
:1056a80005003200f0c1b30004edb7000080eb0044
:1056b800400798003b0037002e00900040109000f3
:1056c800100798002e00900080189000701090002d
:1056d8002e01900010199800211998008e80e8007a
:1056e8002e009000f3fa0700000f78001e00e0007b
:1056f80005003a00b0c1b30004edb7008080eb00ac
:1057080041079800270037001e00780030489000b5
:105718000080fb004300de00610060000004e00040
:1057280005003200f0c1b30004edb7000080eb00c3
:10573800400798001b0037002e0090006010900072
:105748004400de00610060000004e0000600320052
:105758006e409000804078000144a0001e00780050
:1057680031489800030037001e007800ee40900092
:10577800314898008e80e8002e009000e2f407007f
:105788000004e00005003a0090c0b30004edb70043
:105798000080eb0040079800020037008000eb0013
:1057a800410798004e0090000080fa0000000600b3
:1057b8002600fa00600f9800710f980002179800f1
:1057c80013179800fe0890000e1090000088b9008a
:1057d80001002000400f9800510f98006e089000bb
:1057e800300f98000000eb00100f98000000eb004d
:1057f800100798001e1090003008900061006000ab
:105808000000e00007003a00d0c1b30004edb70083
:1058180090002000100f98008000eb0021179800de
:10582800290137004e089000de089000e00f500074
:10583800e08f580003003a000001eb00221798009f
:1058480021013700741707000004e0000700320048
:1058580080c1b30004edb70080012000100f98004c
:105868008001eb0023179800170137000040eb0078
:10587800f2edb7001e10900090007800210f9800fc
:105888001e10900060019000020f98001e109000fa
:105898007001900080099000420798005307980013
:1058a8001e10900030019000c00190002e0890005a
:1058b80019ff070060079800710798001e109000f4
:1058c800500090006101b8006e009000fe0090004a
:1058d8000000410081804900600798007107980026
:1058e800516f80001e109000808f50000d00320014
:1058f800f0cdbf000004e00008003200f50007000a
:105908000004e0000500320090c0b30004edb700c9
:105918008001eb0023179800eb0037001e10900061
:10592800506f8800626f8000736f80006e00900077
:10593800fe009000800f5100818f59001c0032003a
:10594800f0cdbf000004e00008003200e1000700cd
:105958000004e0000500320090c0b30004edb70079
:105968008000eb0021179800d70037000040eb00bb
:10597800f2edb7002e089000100178006e0090003c
:10598800fe0090004c1607000004e00004003a00f6
:10599800b0c1b30004edb70080002000100f9800dc
:1059a8006e019000fe019000626f8800736f88009e
:1059b8001e10900010099000a0099000220798007e
:1059c80033079800a60037004e019000de019000d2
:1059d8002e009000be009000800f5100818f59006a
:1059e80004003a001e109000b00890000120a000aa
:1059f800310898008e08900000202000808f500009
:105a08006b003a0010c0b300004f7800f0cdbf0023
:105a18000004e00008003200ae0007000004e000c7
:105a28000500320090c0b30004edb7008001eb0020
:105a380023179800a40037000000eb00000f98001f
:105a48001e109000500090008000e8001e1090008a
:105a5800510098001e109000d00090002e08900071
:105a6800305890000080fb00808f500016003a00ec
:105a78009e1090000000eb00d00098001e109000cf
:105a880030089000640060000000e0000800320068
:105a98008040eb001e1090000df807000080fb000e
:105aa800100f98000040eb00004f78000600370008
:105ab80012002000030020001e10900009ed0700ce
:105ac8000080fb00100f98001e089000f50f500092
:105ad80005003a0050c1b30004edb7000000eb0028
:105ae80020179800780037001e0890000000e0009a
:105af8002f003a001e10900030019000c001900065
:105b08002e08900084fe070060079800710798002f
:105b18001e109000500090006101b8006e009000c7
:105b2800fe00900000004100818049006007980055
:105b3800710798009e109000516f88001e04e000c5
:105b4800170032002e089000100178006e009000b7
:105b5800fe009000d81507000004e0000b003a0092
:105b6800b0c1b30004edb70080002000100f98000a
:105b78000080eb008080eb00606f8800716f880008
:105b88000001eb00221798004f0037006e009000cc
:105b9800fe009000606f8800716f88000400370075
:105ba8006e019000fe019000626f8800736f88009c
:105bb8001e0890000000e00029003a002e0890001e
:105bc800900078000e089000808040003e08900009
:105bd80010407800804878000e0890000000e80027
:105be800000f98003e0890000000e800300f980071
:105bf8004e009000de00900061004000e080480008
:105c080040079800510798004e089000de08900061
:105c180061005000e0805800400f9800510f980034
:105c28001e0090000000e800100798001e10900069
:105c380030089000640060000000e00006003200b8
:105c48002e009000be00900061004000e0804800f7
:105c5800200798003107980010c0b300f0edb70096
:105c68001e0890000000e00005003a004e08900071
:105c7800de089000e00f5000e08f580052ff3a0015
:105c88001e1090008e099000630098001e1090006e
:105c98004e019000de019000720098000308980001
:105ca8001e1090002e019000be019000120898006e
:105cb800230898001e0090007e099000110009003a
:105cc8000280d800201798002e1090000080fa005b
:105cd800000006000a00fa00506f8000000f7800ec
:105ce8001e00780090007800110798001e007800c8
:105cf80030019000c00190001e00900006fe0700d1
:105d080020079800310798001e0078005000900086
:105d18006101b8002e009000be0090000000410014
:105d28008180490020079800310798001e009000e4
:105d3800100178008041eb002e009000be0090001a
:105d4800ce1507000004e00003003a009000200090
:105d580040079800040037000040eb00f0edb70062
:105d68008000eb00410798004e0090000080fa0088
:105d7800000006000400fa00000f78000040eb0065
:105d880004edb7001e0078007001900080099000b3
:105d98001e007800a0089000100890000002eb0098
:105da80014079800800f5100818f590002003a00b3
:105db80010002000100798001e0090000080fa00d4
:105dc800000006002000fa00300f9800410f9800ec
:105dd800520f9800630f9800ce0890005e0890005c
:105de8000088b90001002000100f9800210f9800ca
:105df8003e089000000f98000000eb001007980084
:105e08000000eb00000f78000040eb0004edb70045
:105e18006e08900090007800710798006e08900056
:105e280060019000220798006e08900070019000b1
:105e38008009900052079800630798006e08900048
